:020000040800F2
:10000000D8070020D5010008B11500087D0C0008B4
:10001000AD150008AD070008E5220008000000004B
:10002000000000000000000000000000B117000800
:10003000BF0700080000000059160008C518000896
:10004000EF010008EF010008EF010008EF010008D0
:10005000EF010008EF010008EF010008EF010008C0
:10006000EF010008EF010008EF010008EF010008B0
:10007000EF010008EF010008EF010008EF010008A0
:10008000EF010008EF010008EF010008EF01000890
:10009000EF010008EF010008EF010008EF01000880
:1000A000EF010008EF010008EF010008EF01000870
:1000B000691B0008EF010008EF010008EF010008CC
:1000C000EF010008EF010008EF010008EF01000850
:1000D000EF0100082D200008EF010008EF010008E3
:1000E000EF010008EF010008EF010008EF01000830
:1000F000EF010008EF010008EF010008EF01000820
:10010000EF010008EF010008691C0008EF0100087A
:10011000EF010008EF010008EF010008EF010008FF
:10012000EF010008EF010008EF010008EF010008EF
:1001300000F002F800F03FF80AA090E8000C8244BA
:100140008344AAF10107DA4501D100F034F8AFF297
:10015000090EBAE80F0013F0010F18BFFB1A43F0A5
:1001600001031847CC8E0000EC8E0000103A24BF2B
:1001700078C878C1FAD8520724BF30C830C144BF0C
:1001800004680C607047000000230024002500264E
:10019000103A28BF78C1FBD8520728BF30C148BFEA
:1001A0000B607047642900F06780002070471FB51E
:1001B0001FBD10B510BD00F0CBFA1146FFF7F7FFD9
:1001C00003F052FE00F0E9FA03B4FFF7F2FF03BCBC
:1001D00002F00DF90948804709480047FEE7FEE7AD
:1001E000FEE7FEE7FEE7FEE7FEE7FEE7FEE7FEE7E7
:1001F00004480549054A064B70470000C918000825
:1002000031010008D8010020D8070020D8030020C1
:10021000D8030020704710B54C1084EA530404D56D
:100220004042C1F1000138BF491E1B4204D5524271
:10023000C3F1000338BF5B1E00F02EF914F0804FAD
:1002400004D04042C1F1000138BF491E14F0004FF4
:1002500004D05242C3F1000338BF5B1E10BD000042
:100260000FB4044910B503AA029800F0F1F910BCCC
:100270005DF814FB340000202DE9F041064600240F
:1002800010687529314616A510D0AFF300800028FC
:1002900002DA404213A507E031688A0701D512A5AA
:1002A00002E0490704D511A5012401E0AFF3008065
:1002B00000210A2206F1240709E0B0FBF2FCB0FBA2
:1002C000F2F302FB1C00303078541846491C002819
:1002D000F3D123462A463046BDE8F04100F05EB92E
:1002E000000000002D0000002B0000002000000096
:1002F0002DE9F05F894604464FF0000ADFF824B18B
:10030000FB44C0F820A02046E168884700287DD043
:10031000252806D0D4E901219047206A401C20629C
:10032000F1E700255F462046E16888472028064619
:1003300007DB312E05D2B81910F8200C08B105439F
:10034000F1E7A80701D525F00405C4F81CA0002793
:10035000C4F818A02A2E09D0304602F041F838B36C
:1003600004EB8708303EC8F8186019E059F8041B00
:10037000204604EB87029161E1688847012F064619
:1003800018D1E069002820DA25F020051DE0D8F812
:10039000180000EB800006EB40003038C8F8180069
:1003A0002046E1688847064602F01AF80028EED198
:1003B000012F0AD02E2E08D12046E16888477F1CE5
:1003C0000646022F45F02005C4DBA069002803DAA9
:1003D000404245F00105A061E80701D025F0100575
:1003E000A6B1A6F14100192802D8203645F40065CF
:1003F0004A463146204625604D46FFF7D3FE60B1A0
:10040000012807D0ED1D25F0070000E007E000F10E
:10041000080978E705F1040975E730467AE7206AAC
:10042000BDE8F09FDA8B000040EA010310B59B079E
:100430000FD1042A0DD310C808C9121F9C42F8D04E
:1004400020BA19BA884201D9012010BD4FF0FF30FF
:1004500010BD1AB1D30703D0521C07E0002010BD15
:1004600010F8013B11F8014B1B1B07D110F8013BA1
:1004700011F8014B1B1B01D1921EF1D1184610BD82
:1004800002F0FF0343EA032242EA024200F0F4B81A
:10049000704770477047704753EA020C00F069805C
:1004A0002DE9F04B4FF00006002B1FBFB3FA83F588
:1004B00003FA05F424FA05F65E4012BF1643B2FAB9
:1004C00082F502FA05F4C5F120051EBF22FA05FCEB
:1004D00044EA0C04203556EA044C4FEA144418BF91
:1004E000641C4FF000084FF00009904271EB030CC0
:1004F00039D3002919BFB1FA81F701FA07F6B0FA2A
:1005000080F700FA07F6C7F120071EBF20FA07FCA4
:1005100046EA0C062037B6FBF4FCA7EB0507103FB4
:1005200007F01F0BCBF120060CFA0BFB2CFA06F69A
:1005300044BFB3460026202FA4BF5E464FF0000BF9
:100540005BEA060C08BF4FF0010B19EB0B09ABFB84
:10055000027C48EB0608C01B06FB02CC0BFB03CC5D
:1005600071EB0C01C1E70B46024641464846BDE827
:10057000F08B13B54FF000004FF00001AFF3008097
:10058000BDE81C40704710B500F096F8006810BD3B
:1005900010B5044600F090F8046010BD2DE9F04756
:1005A0000D4699469246044600F1240801688806E3
:1005B00004D5E06921F01001216000E00120A8428B
:1005C00001DD471B00E00027A1697A1902EB090051
:1005D000081AA0612078C00602D42046AFF300803C
:1005E000002608E0D4E901211AF806009047206AA5
:1005F000401C761C20624E45F4DB2078C0060AD5EC
:100600002046AFF3008006E0D4E901213020904776
:10061000206A401C2062381EA7F10107F4DC07E0C5
:10062000D4E9012118F805009047206A401C206297
:10063000281EA5F10105F3DC2046AFF300802078E9
:10064000000602D50220BDE8F0870120FBE700008C
:10065000074B70B50D467B4400F037F8044628463A
:1006600000F046F810B14FF0FF3070BD204670BD6D
:10067000473100004FF000020429C0F0128010F052
:10068000030C00F03B80CCF1040CBCF1020F18BF4E
:1006900000F8012BA8BF20F8022BA1EB0C0100F001
:1006A0002DB85FEAC17C24BF00F8012B00F8012BB4
:1006B00048BF00F8012B70470048704774010020C4
:1006C00001694A1C02610878704700B58FB0CDE916
:1006D00001310021059105497944CDE90310114606
:1006E0006846FFF705FE0FB000BD0000E5FFFFFF05
:1006F000007B00F0800070474FF0000200B5134609
:1007000094469646203922BFA0E80C50A0E80C5031
:10071000B1F12001BFF4F7AF090728BFA0E80C50E2
:1007200048BF0CC05DF804EB890028BF40F8042BDB
:1007300008BF704748BF20F8022B11F0804F18BF48
:1007400000F8012B7047000000487047740100203A
:100750007546FFF7F9FFAE4605006946534620F09F
:100760000700854618B020B5FFF742FDBDE82040E0
:100770004FF000064FF000074FF000084FF0000B5D
:1007800021F00701AC46ACE8C009ACE8C009ACE810
:10079000C009ACE8C0098D46704710B50446AFF3F8
:1007A00000802046BDE81040FFF70EBD00BFFEE709
:1007B00010B500214FF0804001F016FB10BD7047CE
:1007C00008B54EF67D7000F09BFA14A04EF67D73CE
:1007D0000022082100901E2000F0DAF812A04EF648
:1007E0007D730022232100900C2000F0D1F810A08E
:1007F0004EF67D730022372100900C2000F0C8F8DF
:100800000DA04EF67D7300224B2100900C2000F0CD
:10081000BFF84FF4E16002F09DF908BD444953541C
:10082000414E4345000000004C454654203A00002C
:1008300046524F4E543A000052494748543A00003D
:100840002DE9F04102460025002600200023002467
:10085000002791F803C00CF00F0591F803C00CF0CD
:10086000100CBCF1000F03D091F802C04CEA050552
:1008700091F800C0BCF1000F31D0146800202BE0CB
:100880004FF0010C0CFA00F3B1F800C00CEA0306BB
:100890009E4220D183004FF00F0C0CFA03F7BC43AB
:1008A00005FA03FC4CEA040491F803C0BCF1280FDC
:1008B00006D14FF0010C0CFA00FCC2F814C00AE09B
:1008C00091F803C0BCF1480F05D14FF0010C0CFAB0
:1008D00000FCC2F810C0401C0828D1D31460B1F845
:1008E00000C0BCF1FF0F34DD546800202EE000F1A1
:1008F000080C4FF0010808FA0CF3B1F800C00CEA3C
:1009000003069E4221D183004FF00F0C0CFA03F72F
:10091000BC4305FA03FC4CEA040491F803C0BCF1A3
:10092000280F05D100F1080C08FA0CF8C2F8148061
:1009300091F803C0BCF1480F07D100F1080C4FF04B
:10094000010808FA0CF8C2F81080401C0828CED321
:100950005460BDE8F081416170470161704700005B
:1009600010B500BF094800884FF47A7100FB01F40C
:10097000C80601F04BFA044400204FF080418884FF
:10098000322002F0E7F8204610BD0000560000209B
:100990002DE9F84F0746884693469A46DDF8289099
:1009A0000097B3E099F8000080283DDA99F80060DC
:1009B0000D2E05D1009F08F110001FFA80F830E0DD
:1009C000202E03DDA6F1200086B200E000260024E0
:1009D00022E000251CE004EB06105049085C802151
:1009E0002941084040B108EB040291B27A1990B253
:1009F0005A4600F097F809E0D34507D008EB040207
:100A000091B27A1990B2524600F08CF8681CC5B2C7
:100A1000082DE0DB601CC4B2102CDADB07F1080003
:100A200087B209F1010971E0002668E006EB0610C3
:100A30003B4911F8100099F8001088425DD106EB8F
:100A40000610374901EB4000407899F801108842C0
:100A500053D100244FE0002520E006EB061030497A
:100A600001EB4000801C10F8141080202841014048
:100A700041B108EB040291B27A1990B25A4600F0E3
:100A800051F809E0D34507D008EB040291B27A1976
:100A900090B2524600F046F8681CC5B2082DDCDB67
:100AA000002524E006EB06101D4901EB4000801CE8
:100AB000012101EB4401405C80212941084048B1FB
:100AC00008EB040291B27A19083290B25A4600F04B
:100AD00029F80AE0D34508D008EB040291B27A194C
:100AE000083290B2524600F01DF8681CC5B2082DBD
:100AF000D8DB601CC4B2102CADDB701C86B2322E69
:100B000094DB09F1020907F1100087B299F800009F
:100B100000287FF447AFBDE8F88F0000BE680008EA
:100B20003076000870B504460D461646681C83B240
:100B3000601C82B22946204600F014FA304600F0CC
:100B4000C5F870BD1FB50121082000F097FD2020D9
:100B5000ADF8000003208DF8020010208DF803008E
:100B600069461D48FFF76CFE20211B48FFF7F3FE86
:100B70004020ADF8000004208DF8030069461648B7
:100B8000FFF75EFE40211448FFF7E5FE012108460D
:100B900000F064FD40F2E730ADF808004720ADF802
:100BA00004000020ADF80A00ADF8060001A94FF0DE
:100BB000804001F0E3F90121880701F00FF90122DB
:100BC0001146900701F08CF900F044F800214FF035
:100BD000804001F009F91FBD000C01402DE9F05FD4
:100BE0000024A146A24620211748FFF7B6FE142094
:100BF00001F0D6FF20211448FFF7ADFE00BF1348D7
:100C000000680028FBD000F017FD09F1010900BFC2
:100C10000E4800680128FBD0FFF7CAFDFFF7A0FED1
:100C20000446204605F018FC834605F031FA0746D5
:100C30000022074B04F0FAFD054604F015FD82463C
:100C40005046BDE8F09F0000000C01401881214291
:100C500000004D4008B54FF4A06000F0E3FC1C20FC
:100C60008DF8000000208DF801008DF802000120B1
:100C70008DF80300684600F09DFC08BD00BFFEE74C
:100C800008B50121182000F0F9FC4FF20200ADF880
:100C9000000003208DF8020010208DF80300694643
:100CA0000848FFF7CDFD4020ADF8000003208DF887
:100CB000020010208DF8030069460348FFF7C0FDCD
:100CC00008BD0000000C01400010014010B50446B2
:100CD0004FF48050084908604020084908612012FC
:100CE00000F046FDE0B200F043FD4FF480500249B1
:100CF000091F086010BD0000140C014000100140E5
:100D000070B506467F231A460021084600F02AF9EE
:100D10002C2000F069F9002408E0002503E03046AB
:100D2000FFF7D4FF6D1C802DF9D3641C802CF4D305
:100D300070BD10B5FFF7A4FF00F00CF9112000F012
:100D400053F9782001F006FFB12000F04DF90120A1
:100D500000F034F92C2000F031F92D2000F02EF9AC
:100D6000B22000F041F9012000F028F92C2000F019
:100D700025F92D2000F022F9B32000F035F90120EB
:100D800000F01CF92C2000F019F92D2000F016F9C4
:100D9000012000F013F92C2000F010F92D2000F0B4
:100DA0000DF9B42000F020F9072000F007F9C02069
:100DB00000F01AF9A22000F001F9022000F0FEF87C
:100DC000842000F0FBF8C12000F00EF9C52000F0EF
:100DD000F5F8C22000F008F90A2000F0EFF8002032
:100DE00000F0ECF8C32000F0FFF88A2000F0E6F8ED
:100DF0002A2000F0E3F8C42000F0F6F88A2000F082
:100E0000DDF8EE2000F0DAF8C52000F0EDF80E2055
:100E100000F0D4F8362000F0E7F8C82000F0CEF853
:100E2000E02000F0E1F80F2000F0C8F81A2000F0F0
:100E3000C5F80F2000F0C2F8182000F0BFF82F20EE
:100E400000F0BCF8282000F0B9F8202000F0B6F837
:100E5000222000F0B3F81F2000F0B0F81B2000F0B3
:100E6000ADF8232000F0AAF8372000F0A7F8002002
:100E700000F0A4F8072000F0A1F8022000F09EF88E
:100E8000102000F09BF8E12000F0AEF80F2000F0F9
:100E900095F81B2000F092F80F2000F08FF8172033
:100EA00000F08CF8332000F089F82C2000F086F850
:100EB000292000F083F82E2000F080F8302000F088
:100EC0007DF8302000F07AF8392000F077F83F20E4
:100ED00000F074F8002000F071F8072000F06EF8C0
:100EE000032000F06BF8102000F068F82A2000F0D2
:100EF0007BF8002000F062F8002000F05FF800208E
:100F000000F05CF87F2000F059F82B2000F06CF81E
:100F1000002000F053F8002000F050F8002000F00E
:100F20004DF89F2000F04AF8F02000F05DF8012015
:100F300000F044F8F62000F057F8002000F03EF8EA
:100F40003A2000F051F8052000F038F8292000F090
:100F50004BF810BD10B5642001F0FCFD322001F00B
:100F6000F9FD10BDF0B504460D4616461F462A2071
:100F700000F03AF8002000F021F8A11CC8B200F0FF
:100F80001DF8002000F01AF8B11CC8B200F016F8E5
:100F90002B2000F029F8002000F010F8E91CC8B25E
:100FA00000F00CF8002000F009F8F91CC8B200F0BD
:100FB00005F82C2000F018F8F0BD000010B504462C
:100FC0004FF48050064908604020064908612046D9
:100FD00000F0CEFB4FF480500149091F086010BD9E
:100FE000140C01400010014010B504464FF480502D
:100FF00006490860402006494861204600F0B8FBD9
:101000004FF480500149091F086010BD140C0140C5
:10101000001001402DE9FC4104460D4616466B4682
:1010200006223B21682000F0EBF90746BFB99DF886
:1010300001009DF8001040EA012000B220809DF8D8
:1010400003009DF8021040EA012000B228809DF8BC
:1010500005009DF8041040EA012000B230803846B7
:10106000BDE8FC812DE9FC4104460D4616466B4661
:1010700006224321682000F0C3F90746BFB99DF856
:1010800001009DF8001040EA012000B220809DF888
:1010900003009DF8021040EA012000B228809DF86C
:1010A00005009DF8041040EA012000B23080384667
:1010B000BDE8FC8110B500200E4908600E4840686C
:1010C00020F470400C4948600846406840F44050A5
:1010D000486000200949C1F8AC0100F011F8012076
:1010E0000449086000F00CF800200449C1F8B00180
:1010F00010BD0000B0012242001001400000224259
:1011000010B5022001F04CFD10BD000008B5012112
:10111000102000F0B3FA4FF4C050ADF800001020DA
:101120008DF8030003208DF8020069460448FFF79C
:1011300087FB4FF4C0510248FFF70FFC08BD0000C9
:101140000010014010B500200E4908600E484068AC
:1011500020F470400C4948600846406840F4405014
:10116000486001200949C1F8AC01FFF7C9FF01201F
:1011700004490860FFF7C4FF00200449C1F8B0012A
:1011800010BD0000B00122420010014000002242C8
:1011900070B5054600241648406820F47040144994
:1011A00048600846406840F400404860002614E06B
:1011B000002010490860FFF7A3FF01200E49C1F885
:1011C000B0016006040E0B488438006808B1601C4A
:1011D000C4B2FFF795FF701CC6B2082EE8DB15B944
:1011E000FFF7B0FF01E0FFF765FF204670BD00008C
:1011F00000100140B00122420000224270B50446B6
:101200001248406820F47040104948600846406821
:1012100040F44050486000200D490860002512E06D
:10122000E0090B49091F08606006040E0120094906
:10123000C1F8B001FFF764FF002005490860FFF71F
:101240005FFF681CC5B2082DEADB70BD00100140CD
:10125000B00122420000224210B50E48406820F43E
:1012600070400C4948600846406840F4405048606F
:101270000120094908600949C1F8B001FFF740FFA2
:10128000002005490860FFF73BFF00200349C1F833
:10129000B00110BD00100140AC012242000022420A
:1012A00010B50E48406820F470400C49486008466C
:1012B000406840F4405048600020094908600949EE
:1012C000C1F8AC01FFF71CFF012005490860054982
:1012D000C1F8AC01FFF714FF10BD00000010014081
:1012E000B00122420000224210B500241448406898
:1012F00020F47040124948600846406840F40040BD
:10130000486001200F490860FFF7FAFE01200E49EE
:10131000C1F8B001FFF7F4FE07E0601CC4B2FA2C7C
:1013200003DDFFF7BDFF012010BD064880380068CF
:101330000028F2D10349091D086000BFF4E700004E
:1013400000100140AC0122420000224210B5FFF71C
:10135000DDFE80216B2000F0D7F8642001F0FAFB5D
:1013600000216B2000F0D0F8032000F08BF8002063
:1013700000F080F8322000F0AAF80021382000F0B8
:10138000C3F800216A2000F0BFF80021232000F0FC
:10139000BBF88021372000F0B7F8752000F013F873
:1013A0000446682C0BD101216B2000F0ADF8002120
:1013B0006C2000F0A9F8322000F089F801E001204B
:1013C00010BD0020FCE770B50446FFF745FFD020B4
:1013D000FFF714FFFFF788FF2046FFF70FFFFFF727
:1013E00083FFFFF739FFD120FFF708FFFFF77CFFEE
:1013F0000020FFF7CDFE0546FFF752FF284670BDDF
:101400002DE9F04106460F4614461D46FFF724FF1E
:10141000002141EA4601C8B2FFF7F0FEFFF764FF82
:1014200020B1FFF73DFF0120BDE8F0813846FFF70E
:10143000E5FEFFF759FFFFF70FFF012101EB460122
:10144000C8B2FFF7DBFEFFF74FFF0DE0012C04D120
:101450000020FFF79DFE287003E00120FFF798FEB3
:101460002870601EC4B26D1C002CEFD1FFF718FF6E
:101470000020D9E710B50446E006010E1C2000F05C
:1014800043F810BD10B50446E006010E1B2000F025
:101490003BF810BD70B504460025BC2C01DB0125CE
:1014A00010E0622C01DB02250CE02A2C01DB032575
:1014B00008E0142C01DB042504E00A2C01DB0525DF
:1014C00000E0062529461A2000F01EF870BD70B510
:1014D0000446B4F57A7F01DD4FF47A74042C00DA07
:1014E00004244FF47A7090FBF4F0401EC5B22946F4
:1014F000192000F009F80546264604EBD671C1F321
:101500004F00FFF7C7FF70BD70B505460C46FFF7EB
:10151000A3FED020FFF772FEFFF7E6FE18B1FFF73B
:10152000BFFE012070BD2846FFF768FEFFF7DCFE16
:101530002046FFF763FEFFF7D7FE18B1FFF7B0FEB6
:101540000120EFE7FFF7ACFE0020EBE72DE9F041CB
:1015500005460E4617469846FFF77EFE002141EAF3
:101560004501C8B2FFF74AFEFFF7BEFE20B1FFF704
:1015700097FE0120BDE8F0813046FFF73FFEFFF700
:10158000B3FE00240CE018F80400FFF737FEFFF765
:10159000ABFE18B1FFF784FE0120EBE7601CC4B27C
:1015A000BC42F0DBFFF77CFE0020E3E700BFFEE774
:1015B0007047000070B5002100230F22C47804B3E7
:1015C000154C246804F4E064C4F5E064210AC1F118
:1015D0000403CA40447804FA03F184781440214398
:1015E00009010E4C0678A155047804F01F0501246A
:1015F000AC4005786D11AD0005F1E025C5F800415E
:1016000009E0047804F01F050124AC40044D06787D
:10161000761145F8264070BD0CED00E000E400E0D6
:1016200080E100E002490143024A11607047000076
:101630000000FA050CED00E010B500214FF08040ED
:1016400000F06DFC0020034908800121880700F0AC
:10165000CBFB10BD560000207047000029B1064AA0
:10166000D2690243044BDA6104E0034AD26982433F
:10167000014BDA61704700000010024029B1064AB0
:1016800092690243044B9A6104E0034A92698243DF
:10169000014B9A61704700000010024030B50021F4
:1016A0000022002400232D4D6D6805F00C0121B1AE
:1016B000042905D0082923D105E0294D056022E041
:1016C000274D05601FE0254D6D6805F47012234D10
:1016D0006D6805F48034022505EB92421CB9214D5A
:1016E000554305600BE01D4D6D6805F400351DB1D7
:1016F0001C4D5543056002E0194D5543056002E05D
:10170000174D056000BF00BF144D6D6805F0F00176
:101710000909154D6B5C0568DD4045600F4D6D682E
:1017200005F4E061090A104D6B5C4568DD40856099
:101730000A4D6D6805F46051C90A0B4D6B5C456834
:10174000DD40C560054D6D6805F44041890B074DCE
:101750006B5CC568B5FBF3F5056130BD0010024058
:1017600000127A0000093D003A0000204A000020E3
:101770000021082117E000F0800222B14FF400425E
:101780000A4B1A6004E04FF40042084B1B1D1A601C
:101790004FF40052054B1B1D1A601B1F1A604206B6
:1017A000100E4A1ED1B20029E5DC7047100C014032
:1017B000704710B500F002F810BD00000CB5002015
:1017C000019000903348006840F48030314908604F
:1017D00000BF3048006800F4003000900198401CC1
:1017E0000190009818B90198B0F5A06FF1D129487F
:1017F000006800F4003010B10120009001E00020EA
:1018000000900098012843D12348006840F0100060
:10181000214908600846006820F003000860084677
:10182000006840F0020008601A48406819494860A2
:101830000846406848600846406840F48060486058
:101840000846406820F47C1048600846406840F430
:10185000E81048600846006840F08070086000BFEB
:101860000C48006800F000700028F9D00948406872
:1018700020F00300074948600846406840F0020035
:10188000486000BF0348406800F00C000828F9D108
:101890000CBD00000010024000200240042808D1C6
:1018A0004FF0E021096941F004014FF0E02211619D
:1018B00007E04FF0E021096921F004014FF0E02238
:1018C000116170477047000010B51348006840F080
:1018D00001001149086008464068104908400E4957
:1018E0004860084600680E4908400B4908600846F1
:1018F000006820F4802008600846406820F4FE005C
:1019000048604FF41F008860FFF753FF4FF00060FE
:101910000449086010BD0000001002400000FFF8FC
:10192000FFFFF6FE08ED00E0F0B50C46154600227C
:101930000021068C4FF6FE773E400684028B018C18
:101940004FF60C7632407E1C06EA03162E433243D5
:10195000104EB0420ED0104EB0420BD0B0F1804FBE
:1019600008D00E4EB04205D00D4EB04202D00D4E02
:10197000B04206D14FF6FD76314044F001063143C6
:1019800005E04FF6F576314044F00106314302831D
:101990000184F0BD002C01400034014000040040EF
:1019A00000080040000C0040F0B50C46154600222F
:1019B00000210026078C4FF6EF7C07EA0C0707840E
:1019C000028B018C4FF6FF7707EA041640F6FF47BB
:1019D0003A404FF6FF7707EA03373A434FF6FF776F
:1019E00007EA05273A43114FB8420ED0104FB842CC
:1019F0000BD0B0F1804F08D00E4FB84205D00E4F3B
:101A0000B84202D00D4FB84206D14FF6DF773940C9
:101A100046F01007394305E04FF65F77394044F050
:101A20001007394302830184F0BD0000002C0140FF
:101A3000003401400004004000080040000C004059
:101A4000F0B50C461546002200210026078C4FF603
:101A5000FF6C07EA0C070784828B018C4FF6FF7737
:101A600007EA04264FF60C773A404FF6FF7707EA6D
:101A700003172F433A43114FB8420ED0104FB842CC
:101A80000BD0B0F1804F08D00E4FB84205D00E4FAA
:101A9000B84202D00D4FB84206D14FF6FF57394039
:101AA00046F48077394305E04FF2FF57394044F45C
:101AB0008077394382830184F0BD0000002C01400F
:101AC000003401400004004000080040000C0040C9
:101AD000F0B50C461546002200210026078C4EF674
:101AE000FF7C07EA0C070784828B018C4FF6FF7797
:101AF00007EA043640F6FF473A404FF6FF7707EA19
:101B000005273A434FF6FF7707EA03373A43114F69
:101B1000B8420ED0104FB8420BD0B0F1804F08D071
:101B20000E4FB84205D00E4FB84202D00D4FB8420A
:101B300006D14DF6FF77394046F48057394305E02A
:101B400047F6FF57394044F4805739438283018474
:101B5000F0BD0000002C01400034014000040040B2
:101B600000080040000C004010B50121880700F07B
:101B700050F940B10121880700F033F9024800888C
:101B8000401C0149088010BD5600002030B585B0CA
:101B900005460C4601210820FFF760FD01210420C5
:101BA000FFF76CFD0120ADF8100028208DF8130020
:101BB00004A92A48FEF744FE01212848FEF7CBFE7F
:101BC0000220ADF8100028208DF8130004A9234846
:101BD000FEF736FE02212148FEF7BDFEADF80850A3
:101BE000ADF804400020ADF80A00ADF8060001A9E8
:101BF0001B4800F0C3F900201A49088048800120E2
:101C000088800020C8800881154800F013F904205E
:101C10001449088000204880012088800020C88066
:101C200008810F4800F006F932208DF800000220EC
:101C30008DF8010000208DF8020001208DF80300CE
:101C40006846FFF7B7FC01220721054800F048F974
:101C50000121034800F0C8F805B030BD000801407C
:101C6000000C00405801002010B55748007800F0E3
:101C7000800000284CD10121544800F0CAF8D0B1AE
:101C80005148007800F04000A8B14F48007800F0BB
:101C90003F003F280AD14C48007840F080004A4974
:101CA00008704FF6FF704A49088004E04648007803
:101CB000401C454908700421444800F0AAF838B394
:101CC0004148007800F0400078B13F48007840F08B
:101CD00080003D4908703D4800F095F83C49088077
:101CE00000213A4800F00EF912E000203649087051
:101CF000374908800021354800F011F93248007852
:101D000040F04000304908700221304800F0FAF8F5
:101D100005212E4800F065F82E48007800F080007C
:101D200000284CD10121294800F073F8D0B129488E
:101D3000007800F04000A8B12648007800F03F008D
:101D40003F280AD12348007840F0800021490870DC
:101D50004FF6FF702049088004E01E480078401CC0
:101D60001C4908700221194800F053F838B319488B
:101D7000007800F0400078B11648007840F080000C
:101D800014490870114800F03BF8134908800021FD
:101D90000E4800F0AEF812E000200E4908700E491F
:101DA00008800021094800F0BAF80A48007840F09D
:101DB0004000084908700221044800F09AF8032105
:101DC000024800F00EF810BD52000020000C004048
:101DD000540000204E00002050000020CA43028220
:101DE0007047CA430282704721B1028842F0010263
:101DF000028004E002884FF6FE731A4002807047AA
:101E00000146888E70470146088F70470146888CCE
:101E1000704730B50246002000230024158A05EAE9
:101E20000103958905EA010413B10CB1012000E01A
:101E3000002030BD70B505460C46244885420ED0C2
:101E4000234885420BD0B5F1804F08D02148854208
:101E500005D02148854202D02048854200D100E0CB
:101E600000BF208850B92389A28861882846FFF7DF
:101E70005BFDE188284600F054F825E0208804281E
:101E80000AD12389A28861882846FFF78DFDE18861
:101E9000284600F04FF817E0208808280AD1238947
:101EA000A28861882846FFF7CBFDE188284600F02C
:101EB0004EF809E02389A28861882846FFF708FECA
:101EC000E188284600F04CF870BD0000002C01406D
:101ED000003401400004004000080040000C0040B5
:101EE0001AB183890B43838102E083898B43838109
:101EF00070470A460021018C4FF6FD7319401143CB
:101F0000018470470A460021018C4FF6DF731940A7
:101F10004FF6FF7303EA021319430184704781846B
:101F20007047028B4FF6F3731A400283028B0A4309
:101F300002837047028B4FF2FF331A400283028BF9
:101F40004FF6FF7303EA01231A4302837047828B23
:101F50004FF6F3731A408283828B0A438283704761
:101F6000828B4FF2FF331A408283828B4FF6FF73CE
:101F700003EA01231A43828370470000002202888B
:101F80001D4B98420ED01D4B98420BD0B0F1804FA4
:101F900008D01B4B984205D01A4B984202D01A4BDE
:101FA000984204D14FF68F731A404B881A43174B4F
:101FB000984207D0164B984204D04FF6FF431A4080
:101FC000CB881A4302808B8883850B8803850A4B54
:101FD00098420BD0094B984208D00E4B984205D03E
:101FE0000D4B984202D00D4B984201D10B7A0386DB
:101FF0000123838270470000002C0140003401401F
:102000000004004000080040000C004000100040A8
:1020100000140040004001400044014000480140DD
:1020200010B5FEF786FEFEF7CBFB10BD10B540F2F3
:1020300025511D4800F04AF810B31B4800F002F982
:10204000C4B21A48008800F40040C8B91748008894
:1020500000F4804060B10A2C03D0002013490880AE
:1020600020E01248008840F400401049088019E040
:102070000D2C06D10D48008840F480400B490880A3
:1020800010E00A480088C0F30D0009490C540748C5
:102090000088401C0549088008460088C72801DDE3
:1020A0000020088010BD00000038014038000020EA
:1020B0009000002021B1828942F40052828104E024
:1020C00082894DF6FF731A408281704770B50246CF
:1020D000002400230025002040F66A16B14200D1FA
:1020E00000BFC1F3421501F01F03012606FA03F3F6
:1020F000012D02D19689334006E0022D02D1168AC5
:10210000334001E0968A33400C12012606FA04F4AB
:102110001688344013B10CB1012000E0002070BDDE
:10212000F0B50346002400260025002040F66A177B
:10213000B94200D100BF1846C1F3421401F01F0696
:10214000012707FA06F5012C01D10C3004E0022C1E
:1021500001D1103000E014301AB107682F43076036
:1021600002E00768AF430760F0BD00002DE9F047CB
:1021700086B005460E460024A24600BFA1460027B1
:10218000B08900B100BF2F462C8A4CF6FF70044086
:10219000F08804432C82AC894EF6F3100440B088DA
:1021A00031890843718908430443AC81AC8A4FF6F6
:1021B000FF400440B0890443AC8201A8FFF76EFAE7
:1021C0001F48874202D1DDF810A001E0DDF80CA025
:1021D000A88900F4004040B10AEBCA0000EB0A10E5
:1021E00031684900B0FBF1F807E00AEBCA0000EBE8
:1021F0000A1031688900B0FBF1F86420B8FBF0F0F8
:1022000004012009642101FB1089A88900F4004021
:1022100040B1322000EBC900B0FBF1F000F0070044
:10222000044308E0322000EB09106421B0FBF1F018
:1022300000F00F0004432C8106B0BDE8F0870000D9
:102240000038014001468888C0F30800704700004C
:1022500008B501211020FFF711FA1020ADF8000099
:102260008DF8030003208DF8020069460148FEF74F
:10227000E7FA08BD0010014008B501211020FFF762
:10228000FDF92020ADF8000010208DF80300032098
:102290008DF8020069460248FEF7D2FA08BD000038
:1022A0000010014010B5012004490860142000F01E
:1022B00077FC00200249C1F8900110BD9001224234
:1022C0000000224210B5012004490860142000F0EB
:1022D00067FC00200249C1F8940110BD940122421C
:1022E0000000224200BFFEE7490050EAC12018BFAB
:1022F00004204A0D18BF40F0010040F2FF72B2EB1B
:10230000515F08BF40F00200012808BF0520704758
:102310002DE9F0414F1E00EBC7010446D1E9000151
:1023200015461E4637F006020DD02A46334603F006
:10233000D5FB7F1E04EBC703D3E9002303F0C6F9E6
:1023400037F00602F1D1022F25D0042F13D0062F2B
:1023500018BFBDE8F0812A46334603F0BFFBD4E93D
:102360000A2303F0B3F92A46334603F0B7FBD4E956
:10237000082303F0ABF92A46334603F0AFFBD4E958
:10238000062303F0A3F92A46334603F0A7FBD4E95A
:10239000042303F09BF92A46334603F09FFBD4E95C
:1023A000022303F093F92A46334603F097FBD4E95E
:1023B0000023BDE8F04103F089B9012204F039BAE5
:1023C00003F084B9002213461046114603F02EBADA
:1023D000024A0020110704F02CBA000001FDFFFFA3
:1023E00030380A2801D2012070470020704701468A
:1023F00000BF70472DE9FE4F06460F460025684690
:1024000001F0DCF9002442E056F8240057F82410CB
:10241000A0EB010ABAF1000F01DB514601E0CAF15D
:102420000001084604F000F883464FF08F4103F0A6
:10243000C9FE80465DF82400002103F085FF16D018
:102440005DF82410404603F0BDFE82464FF07E51F9
:1024500004F048F9814629F0004A0F48416A504685
:1024600004F00EF912D20120A04005430EE00A4804
:10247000C169404604F004F805D30748016A4046A4
:1024800004F0FEF802D20120A0400543641C032C96
:10249000BADB2846BDE8FE8FC08200082DE9F04D6A
:1024A0008D4F21F0004A86B005460C46BA452ADB1E
:1024B000AAEB070028430AD08848824501DC1AD1DC
:1024C000CDB106B02846BDE8F04DFFF776BF844A8F
:1024D000844B284603F002FB07460E46824A834B94
:1024E0002846214603F0FAFA06B03A463346BDE8DC
:1024F000F04D03F0EBB80120FEF74AF806B0BDE856
:10250000F04DFFF75FBF7A48824542DABAF1795F52
:102510000BDA2846FFF7E8FE042808BFFFF758FF4C
:10252000284606B02146BDE8F08D2A460B461046E7
:1025300003F0D4FA834602466E480E460B46062147
:102540007844FFF7E5FE5A46334603F0C7FA804663
:1025500069488A465A46334604217844FFF7D8FE34
:102560005A46334603F0BAFA00223B4603F0AEF86F
:1025700002460B464046514603F058F92A46234688
:1025800003F0ACFA06B02A462346BDE8F04D03F04E
:102590009DB8284624F0004100223D463B4603F00A
:1025A0009BFB4FF0FF3204F044F9064602465348C5
:1025B0000F460B4606217844FFF7AAFE32463B46FB
:1025C00003F08CFACDE900014D4832463B46042128
:1025D0007844FFF79DFE32463B4603F07FFA002227
:1025E0002B4603F073F8834602913046394602F0D9
:1025F000C5FF804643480D46504517DCDDE9000124
:102600005A46029B03F012F942462B4603F066FA43
:1026100042462B4603F05AF8012204F00AF9304AE8
:10262000304B03F04BFC304A304B4CE04FF0000A8B
:1026300052460B46404603F049F8CDE90310524696
:102640002B461046194603F049FA32463B4603F042
:1026500043FBDDE9033203F0E9F806460F46DDE906
:1026600000015A46029B03F0E1F8834600910122E3
:102670003046394604F0DDF8194A1A4B03F02CFBBA
:1026800006460F4601224046294604F0D2F85A4633
:10269000009B03F023FA32463B4603F00FFC06464C
:1026A0000F4601225046294604F0C3F80E4DDFF8CC
:1026B00058802A46434603F00FFB32463B4603F060
:1026C0000BFB2A46434603F007FB002CD8BF81F0E2
:1026D000004106B0BDE8F08D0000F03F0000F07F43
:1026E000075C143326A6913C182D4454FB21F93F76
:1026F0000000E03FAC690000C269000036690000DC
:102700004C6900003333EF3FFB21E93F2DE9F84FDF
:1027100004460D4621F0004000917349814211DCCE
:102720007249884201DC06D12CB120462946BDE819
:10273000F84FFFF742BE6E48002DCCBF6D496E4981
:10274000BDE8F88F6D49814211DD6D498142D8BFE6
:102750004FF0FF366DDD20462946FFF7C5FD042802
:1027600008BFFFF735FE20462946BDE8F88F6549CA
:10277000654F25F00045814233DD6449814219DD12
:10278000002632464FF080432046294602F09EFF45
:1027900080468A4601222046294604F04AF8002253
:1027A0003B4603F08BFB4246534603F03FF804469A
:1027B0000D463EE001260022BA463B462046294609
:1027C00002F084FF80460F460022534620462946E9
:1027D00003F074FB42463B4603F028F804460D46DE
:1027E00027E04B4981421BDDDFF828A102260022A9
:1027F00053462046294603F071F900223B4602F079
:1028000065FF80460F46002253462046294603F0C6
:1028100055FB42463B4603F009F804460D4608E0E6
:10282000032622462B4600203B4902F0FFFF0446C8
:102830000D4622462B461046194603F04FF98B46AB
:10284000824602460B4603F049F9074602463348E2
:1028500088460B4606217844FFF75AFD52465B46F0
:1028600003F03CF982462E488B463A464346052102
:102870007844FFF74DFD3A46434603F02FF90246F0
:102880000B46002E504659460CDA02F01FFF224636
:102890002B4603F023F901B022462B46BDE8F04F4A
:1028A00003F01ABA02F012FF22462B4603F016F983
:1028B0001C4A7A4402EBC603D3E9002303F0FEFA74
:1028C00022462B4603F0FAFA174A7A4402EBC60373
:1028D000D3E9002303F000FA009A002AB8BF81F080
:1028E0000041BDE8F88F0000000010440000F07FB8
:1028F000182D4454FB21F93FFB21F9BF0000DC3FB8
:102900000000203E0000F33F0000F03F0000E63FE3
:10291000008003400000F83F0000F0BF4E67000059
:102920000C670000AA660000726600002DE9F04DF9
:102930009446CCF1000423F000464CEA0404524FC4
:1029400046EAD4749A46884621F00042BC4206D832
:10295000454240EA050442EAD474BC4204D9BDE8C9
:10296000F04D6246FFF72CBDAAF14055A5F17F65F9
:1029700055EA0C040BD0022404EAAA74434DDFF894
:1029800010E144EAD87452EA000B04D00CE0BDE830
:10299000F04DFFF7BBBE002C14BF012CBDE8F08D3D
:1029A000022C30D0032C32D056EA0C0B0AD0BE4297
:1029B00020D1BA4209D126F0804622F08042334627
:1029C000114617E000291ADB25E0DFF8C8B0FB4408
:1029D000002C04BFDBE90001BDE8F08D012C02BF33
:1029E000DBE9000181F00041BDE8F08D022C0AD046
:1029F000032C0CD0BA4212D1B8F1000F0BDA2348E5
:102A00002549BDE8F08D28462449BDE8F08D2846CB
:102A10007146BDE8F08D1D482149BDE8F08D921B3F
:102A200012153C2AC4BF19481D490EDCBAF1000F2B
:102A3000BEBF12F13C0F0020014606DB624602F0E9
:102A4000F5FE21F00041FFF761FE002C08BFBDE854
:102A5000F08D012C04BF81F00041BDE8F08D114ADA
:102A6000114B022C07D003F029FA2A46BDE8F04D9D
:102A70000A4B03F023BA03F021FA2A46BDE8F04DD1
:102A8000064B03F029B900000000F07F182D4454D4
:102A9000FB2109C006660000FB21F9BFFB210940AC
:102AA000FB21F93F075C143326A6A13C2DE9F04138
:102AB0000446E07800F0C006E07800F03F0560785A
:102AC00000F0010098B1EF102846E91705EB5171AD
:102AD000C910A5EBC101491C01F0FF080B480068B3
:102AE00020B10A48414602683846904700BF6078E6
:102AF00000F0080030B10548406818B1B011034A31
:102B0000516888470020BDE8F08100006401002082
:102B100010B56FF00400FEF7C1FE0A4800680A49CC
:102B2000B0FBF1F0094908700846007800EB40015D
:102B3000C1EBC0104FF6FF7101EAC00004490880E4
:102B400010BD00001C00002000127A0030000020A0
:102B5000320000200146114A12884A434FF0E02318
:102B60005A6100229A611A46126942F001021A6102
:102B700000BF4FF0E022106900F001021AB100F42A
:102B80008032002AF5D04FF0E022126922F00102D3
:102B90004FF0E0231A6100229A6170473200002052
:102BA0000146114A12784A434FF0E0235A6100224D
:102BB0009A611A46126942F001021A6100BF4FF091
:102BC000E022106900F001021AB100F48032002AFC
:102BD000F5D04FF0E022126922F001024FF0E0231D
:102BE0001A6100229A6170473000002038B504460F
:102BF00064B120208DF8000028208DF801003020DD
:102C00008DF8020038208DF8030004E0A32204218F
:102C10006846FDF735FC6A46042140F69E2002F026
:102C200077FB01F061FF38BD3EB5044602208DF808
:102C30000000CA208DF80100E3208DF80200092071
:102C40008DF803006A460421682002F061FBA3208E
:102C50008DF8000004F0400048B1C0208DF801005C
:102C6000C8208DF80200C2208DF8030006E0A320E2
:102C70008DF801008DF802008DF8030004F4C07097
:102C800048B1C4208DF80400CC208DF80500C62082
:102C90008DF8060006E0A3208DF804008DF80500ED
:102CA0008DF80600A3208DF807008DF808008DF838
:102CB00009006A460A2140F6A72002F029FB04F029
:102CC000030018B120208DF8000002E0D8208DF814
:102CD00000006A46012140F6B62002F019FB04F01C
:102CE000200018B1012000F0ADF802E0002000F053
:102CF000A9F804F4C07008B304F4807060B1B22085
:102D00008DF800008B208DF80100B6208DF80200B0
:102D10009B208DF803000BE0B0208DF80000802090
:102D20008DF80100B4208DF8020090208DF803008A
:102D30006A46042140F6A22002F0EAFA04F00100FB
:102D400020B3F8208DF800006A4601214FF40B6093
:102D500002F0DEFAFA21072000F02CFC072000F038
:102D6000F3FB012000F013FC642000F0F3FC4FF4AF
:102D7000FA7000F002FDC821304800F0A3FB2820C3
:102D800000F0BCFB0A2000F0CCFB08E0D8208DF856
:102D900000006A4601214FF40B6002F0B9FA04F01A
:102DA000020018B1D9208DF8000002E0D8208DF87B
:102DB00000006A46012140F23D7002F0A9FA04F0D9
:102DC000040018B1012000F069F802E0002000F0D2
:102DD00065F804F0100018B10120FFF707FF02E0CA
:102DE0000020FFF703FF44F008001549488101F077
:102DF0007BFE00201249887304F0400018B1084699
:102E0000807B801D887304F4C07020B10C48807BE7
:102E1000801D0B49887304F0140020B10848807BA2
:102E200010300749887304F0030020B10448807B08
:102E3000001D0349887300203EBD000009E3CA025B
:102E4000640100203EB504466CB10EA1D1E900201A
:102E50008968CDE9002002916A4609214FF4976004
:102E600002F056FA3EBD0AA2D2E900109268CDE9FE
:102E7000010200916A4609214FF4976002F048FA76
:102E8000F0E70000B8AAB38DB4980D355D000000DE
:102E9000B8AAAAAAB088C3C5C700000038B50446BE
:102EA00064B1C0208DF80000C2208DF80100C4205C
:102EB0008DF80200C6208DF8030004E08B22042167
:102EC0006846FDF7DDFA6A46042140F6982002F0D4
:102ED0001FFA01F009FE38BD10B5C8234FF4806217
:102EE000024940F6F63001F093FC10BDE88200087C
:102EF0002DE9F04F8DB00746884615469946DDE925
:102F0000166B0024002030806B49887B5A4605A947
:102F100001F04AFD18B1601E0DB0BDE8F08F6648A3
:102F2000807A00F01400002867D09DF81400000695
:102F30009DF8151040EA01409DF8161040EA012066
:102F40009DF81710084328609DF8180000069DF8AA
:102F5000191040EA01409DF81A1040EA01209DF83E
:102F60001B10084368609DF81C0000069DF81D10AA
:102F700040EA01409DF81E1040EA01209DF81F1014
:102F80000843A8609DF8200000069DF8211040EA43
:102F900001409DF8221040EA01209DF823100843CB
:102FA000E86004F11000C4B2286800140190686859
:102FB00000140290A86800140390E86800140490BC
:102FC00001984043029901FB0100039901FB0100B4
:102FD000049901FB010ABAF1706F02DBBAF1885F54
:102FE00005DD01F081FD00203080401E94E7B6F938
:102FF000000040F48070308000BF2F48807A00F0DD
:10300000400020B305A9601C085C095D40EA01206E
:1030100000B2A8F8000005A9E01C095C05AAA01CE4
:10302000105C41EA002000B2A8F8020005A9601D6A
:10303000095C201D105C41EA002000B2A8F80400E1
:10304000A01DC4B2B6F9000040F0080030801A4854
:10305000408900F4C07008B305A9601C085C095DD4
:1030600040EA012000B2388005A9E01C095C05AAED
:10307000A01C105C41EA002000B2788005A9601D08
:10308000095C201D105C41EA002000B2B880A01D40
:10309000C4B2B6F9000040F0700030800648807A73
:1030A00000F0030018B105A90819FFF7FFFC484616
:1030B00001F040F800202FE76401002070B588B0CF
:1030C000064601A801F0F8F9BDF804000021C90383
:1030D00041EA5045C4034448007A00F0030056F822
:1030E000200005904048007A00F0040010B10598D7
:1030F000404205903C48007AC0F3C10056F82000D9
:1031000006903948007A00F0200010B1069840423D
:1031100006903548007AC0F3811056F820000790D9
:103120003148008900F4807010B107984042079040
:103130000598C117A0FB042301FB043100FB051017
:10314000810041EA927005900698C117A0FB042304
:1031500001FB043100FB0510810041EA92700690EA
:103160000798C117A0FB042301FB043100FB0510E5
:10317000810041EA927007900598000E8DF80800D2
:103180000598000C8DF809000598000A8DF80A00D2
:103190000598C0B28DF80B000698000E8DF80C0053
:1031A0000698000C8DF80D000698000A8DF80E00A8
:1031B0000698C0B28DF80F000798000E8DF8100029
:1031C0000798000C8DF811000798000A8DF812007E
:1031D0000798C0B28DF8130002AA0C214FF4257095
:1031E00002F096F808B070BD6401002030B585B0DB
:1031F000044616A207CA02AB07C3C82C03DD4FF072
:10320000FF3005B030BDC82090FBF4F0401E85B201
:10321000280A8DF80000E8B28DF801006A46022104
:1032200040F2162002F074F810B14FF0FF30E8E7DA
:1032300002AA0C2140F6C12002F06AF810B14FF04A
:10324000FF30DEE7044884810020DAE7FEF2ABC4F9
:10325000AAF1DFDFBBAFDFDF640100201FB504464A
:103260004848007A00F0030054F8200001904548D7
:10327000007A00F0040010B10198404201904148EA
:10328000007AC0F3C10054F8200002903D48007A53
:1032900000F0200010B10298404202903948007AB4
:1032A000C0F3811054F8200003903648008900F4E0
:1032B000807010B10398404203903349019880FB1D
:1032C0000101800F40EA810001902F49029880FBA4
:1032D0000110820042EA917002902B49039880FB12
:1032E0000110820042EA917003900198000E8DF85F
:1032F00000000198000C8DF801000198000A8DF87B
:1033000002000198C0B28DF803006A4604214FF410
:10331000747001F0FDFF18B14FF0FF3004B010BD24
:103320000298000E8DF800000298000C8DF8010044
:103330000298000A8DF802000298C0B28DF80300CE
:103340006A4604214FF4757001F0E2FF10B14FF0AE
:10335000FF30E3E70398000E8DF800000398000C9F
:103360008DF801000398000A8DF802000398C0B29E
:103370008DF803006A4604214FF4767001F0C8FF0F
:10338000CCE700006401002009E3CA0210B586B052
:10339000044647A00068039046A00068029046A03B
:1033A0000068019045A00068009004F0030003A9A4
:1033B000085C8DF8140003A8C4F3C101405C8DF8CB
:1033C000150003A8C4F38111405C8DF8160004F0C9
:1033D000030002A9085C8DF8100002A8C4F3C10123
:1033E000405C8DF8110002A8C4F38111405C8DF897
:1033F000120005AA032140F2264001F089FF18B10E
:103400004FF0FF3006B010BD04AA032140F22A405D
:1034100001F07EFF10B14FF0FF30F3E70198059007
:103420000098049004F0040058B19DF8140040F096
:1034300001008DF814009DF8100040F001008DF897
:10344000100004F0200058B19DF8150040F0010074
:103450008DF815009DF8110040F001008DF8110065
:1034600004F4807058B19DF8160040F001008DF80A
:1034700016009DF8120040F001008DF8120005AA18
:1034800003214FF4886001F043FF10B14FF0FF308B
:10349000B8E704AA032140F2314001F039FF10B12E
:1034A0004FF0FF30AEE7064804810020AAE7000095
:1034B0004CCD6C000CC92C003656760026466600B2
:1034C00064010020F8B505460E464FF47A7095FB6E
:1034D000F0F000FB06F4200E8DF80000200C8DF8B3
:1034E0000100200A8DF80200E0B28DF803006A4660
:1034F00004214FF4AE7001F00BFFF8BD38B504465F
:10350000052094FBF0F084B220128DF80000E0B2A8
:103510008DF801006A4602214FF4AD7001F0F8FE0B
:1035200038BD38B50446052094FBF0F084B2201273
:103530008DF80000E0B28DF801006A4602214FF4D8
:10354000AC7001F0E5FE38BD38B5044600200090AF
:1035500004F0010020B19DF8000040F03000009020
:1035600004F0020020B19DF8000040F00C00009033
:1035700004F0040020B19DF8000040F0030000902A
:103580006A4601214FF4A47001F0C2FE38BD38B57F
:103590000446012C01DA012402E0042C00DD04249D
:1035A000601EC0B200906A46012140F24F1001F047
:1035B000AFFE38BD2DE9FC4706460F4606F0070072
:1035C00010B1B7F5C86F03DD4FF0FF30BDE8FC87E1
:1035D000384602F041FF8146594902F0F3FD80462A
:1035E000684600F043FF9DF80000022806D004283A
:1035F00016D0082826D0102848D135E04FF08D414C
:10360000404602F071FF814602F0EEFE84B24D4961
:10361000404602F069FF814602F0E6FE85B238E0DE
:103620004FF08C41404602F05FFF814602F0DCFE25
:1036300084B24549404602F057FF814602F0D4FE6D
:1036400085B226E04FF08B41404602F04DFF8146A7
:1036500002F0CAFE84B23D49404602F045FF814671
:1036600002F0C2FE85B214E04FF08A41404602F0FB
:103670003BFF814602F0B8FE84B23549404602F075
:1036800033FF814602F0B0FE85B202E04FF0FF301A
:103690009CE700BF20128DF80400E0B28DF8050011
:1036A00028128DF80600E8B28DF8070006F0010038
:1036B000A0B101AA02214FF4EA7001F029FE10B175
:1036C0004FF0FF3082E70DF1060202214FF49270B5
:1036D00001F01EFE10B14FF0FF3077E706F0020058
:1036E000A0B101AA02214FF4EC7001F011FE10B15B
:1036F0004FF0FF306AE70DF1060202214FF494709B
:1037000001F006FE10B14FF0FF305FE706F0040055
:10371000A0B101AA02214FF4EE7001F0F9FD10B141
:103720004FF0FF3052E70DF1060202214FF4967080
:1037300001F0EEFD10B14FF0FF3047E7002045E704
:1037400000004843000040460000C04500004045DE
:103750000000C04438B50446052094FBF0F085B263
:1037600028128DF80000E8B28DF801006A460221A7
:103770004FF4EF7001F0CCFD38BD38B5044605209C
:1037800094FBF0F085B228128DF80000E8B28DF8B5
:1037900001006A4602214FF4ED7001F0B9FD38BD19
:1037A00000BF054A128802F04002002AF9D0C2B2D6
:1037B000014B1B1D1A807047003801407CB505463F
:1037C00028494968087801AB04220D21FDF718FE4D
:1037D00008B107207CBD9DF80700C0F301109DF8DB
:1037E000041001F0E00140EAE1008DF800009DF8CE
:1037F0000700C0F381009DF8051001F0E00140EAE8
:10380000E1008DF801009DF8070000F003009DF82D
:10381000061001F0E00140EAE1008DF8020000240A
:103820001CE01DF8040018B9002045F8240013E03E
:103830000D4845F8240006E055F824000B4902F035
:1038400053FE45F824001DF80400401EC0B20DF8D8
:1038500004000028F0D100BF601CC4B2032CE0DBE0
:103860000020B7E7580000207B14AE3E1D5A843F6D
:103870002DE9F04F87B005460C46914601208DF8A2
:10388000100000208DF81100FE4A1268917CFD4A5C
:103890005268107804AB0222FDF758FE20B14FF0B9
:1038A000FF3007B0BDE8F08FC820FFF753F90020C4
:1038B0008DF81000F34A1268D17BF24A52681078F2
:1038C00004AB0122FDF742FE10B14FF0FF30E8E7F4
:1038D000EC4A12685179EB4A5268107804AB012225
:1038E000FDF734FE10B14FF0FF30DAE7E54A126819
:1038F000917CE44A5268107804AB0122FDF726FE61
:1039000010B14FF0FF30CCE7DE4A1268D17DDD4ABE
:103910005268107804AB0122FDF718FE10B14FF089
:10392000FF30BEE7D74A12681179D64A526810783C
:1039300004AB0122FDF70AFE10B14FF0FF30B0E7F3
:103940000C208DF81000CF4A12681179CD4A5268C8
:10395000107804AB0122FDF7F9FD10B14FF0FF30F4
:103960009FE70F20FFF7F6F8C648806A407A8DF887
:103970001000C44A12689178C24A5268107804ABA9
:103980000122FDF7E3FD10B14FF0FF3089E7BD489C
:10399000806A007A8DF81000BA4A12685178B94AE4
:1039A0005268107804AB0122FDF7D0FD10B14FF042
:1039B000FF3076E7B9F1000F07D0B248806A807A0D
:1039C00040F0E0008DF8100004E0AE48806A807A94
:1039D0008DF81000AB4A12689179AA4A52681078A3
:1039E00004AB0122FDF7B2FD10B14FF0FF3058E7F4
:1039F000B9F1000F07D0A348806AC07A40F0E00018
:103A00008DF8100003E0A048C07A8DF810009D4AA0
:103A10001268D1799B4A5268107804AB0122FDF7F5
:103A200095FD10B14FF0FF303BE7B9F1000F02D028
:103A3000C820FFF78FF840208DF81000914A1268D7
:103A40001179904A5268107804AB0122FDF77EFD8F
:103A500010B14FF0FF3024E778208DF81000894A2C
:103A600012685179874A5268107804AB0122FDF739
:103A70006DFD10B14FF0FF3013E783498889FFF7E0
:103A800069F800208DF810007E4A126851797D4A4D
:103A90005268107804AB0122FDF758FD10B14FF0C9
:103AA000FF30FEE6774A1268917A764A52681078BB
:103AB00004AB0222FDF7A4FC10B14FF0FF30F0E69A
:103AC0009DF811009DF8101040EA012B0C209BFB83
:103AD000F0F0C6B20020A86068602860A060606056
:103AE0002060824665E0674A1268D17A654A52686A
:103AF000107804AB0C22FDF783FC10B14FF0FF30BF
:103B0000CFE69DF811009DF8101040EA012000B2A8
:103B1000ADF808009DF813009DF8121040EA01204E
:103B200000B2ADF80A009DF815009DF8141040EAA7
:103B3000012000B2ADF80C00BDF90810206808445F
:103B40002060BDF90A10606808446060BDF90C107F
:103B5000A0680844A0609DF817009DF8161040EA80
:103B6000012000B2ADF800009DF819009DF8181072
:103B700040EA012000B2ADF802009DF81B009DF85C
:103B80001A1040EA012000B2ADF80400BDF900109F
:103B9000286808442860BDF9021068680844686015
:103BA000BDF90410A8680844A8600AF1010000F0FB
:103BB000FF0AB24597DB3448D0F800C02868C11727
:103BC000090441EA10410704624600233846FCF725
:103BD00022FB32460023CDE90201FCF71CFB2860E2
:103BE0002948D0F800C06868C117090441EA1041AB
:103BF0000704624600233846FCF70DFB32460023DB
:103C0000CDE90201FCF707FB68601F48D0F800C04F
:103C1000A868C117090441EA10410704624600235D
:103C20003846FCF7F8FA32460023CDE90201FCF7EA
:103C3000F2FAA8601448D0F804C02168C81700043C
:103C400040EA11480F046246002338464146FCF71B
:103C5000E2FA32460023CDE90201FCF7DCFA2060EB
:103C60000948D0F804C06068C117090441EA10414E
:103C70000704624600233846FCF7CDFA324600239B
:103C800004E0000058000020C0820008CDE90201D5
:103C9000FCF7C1FA60601148D0F804C0A068C117F1
:103CA000090441EA10410704624600233846FCF744
:103CB000B2FA32460023CDE90201FCF7ACFAA0606B
:103CC000A068002804DDA068A0F58030A06003E0B3
:103CD000A06800F58030A0600020E2E5C082000806
:103CE0002DE9FC5F06460F4600253D4949680878E6
:103CF00001AB03220D21FDF783FB10B10720BDE8C6
:103D0000FC9F9DF8040000F01F008DF804009DF852
:103D1000050000F01F008DF805009DF8060000F07A
:103D20001F008DF80600002456E056F8240057F8CE
:103D30002410A0EB010BBBF1000F01DB594601E0A1
:103D4000CBF10001084602F06FFB4FF08F4100906D
:103D500002F038FA814601A8005D68B3214908687D
:103D600002F07AFB834659461F4802F02BFA804640
:103D700004E01E49404602F0B7FB804601A8005D02
:103D8000401EC0B201A908550028F2D1414648465C
:103D900002F018FA83464FF07E5102F0A3FC8246EF
:103DA0002AF0004B0F488169584602F069FC12D294
:103DB0000120A04005430EE00A480169484602F090
:103DC0005FFB05D307484169484602F059FC02D21F
:103DD0000120A0400543641C032CA6DB28468EE787
:103DE00058000020C082000800B04C4554E3853FD5
:103DF00010B50446204600F00FF80346E01C00F022
:103E00000BF843EAC00083B2A01D00F005F843EAB6
:103E1000801083B2184610BD014691F90020002A97
:103E200001DD00201EE091F90020002A01DA0420C3
:103E300018E091F90120002A01DD012012E091F93A
:103E40000120002A01DA05200CE091F90220002A65
:103E500001DD022006E091F90220002A01DA0620A5
:103E600000E007207047000088B000BF0025002652
:103E70000027A846FDF728FDFEF74AFE4FF416502E
:103E800001F0A2FBFCF75EFEFDF760FA00F09EFA7F
:103E9000FEF7C6F8FEF73CFE4FF4A060FDF7C2FB4C
:103EA000FEF7D6F9FEF7E8F947214FF6FF70FDF768
:103EB0006DFE02E083A0FCF7D3F900F087FA00283A
:103EC000F8D182A0FCF7CCF9FAE03220FEF768FEC8
:103ED000804A8149814800F067F9002874D105AA19
:103EE00006A907A8FDF796F802AA03A904A8FDF7FA
:103EF000B9F87B497948006802F0F6FA814602F089
:103F000057FA04B2002C0BDA76A04EF67D7300222D
:103F1000642100900A20FCF73BFD604204B208E0F7
:103F200071A04EF67D730022642100900A20FCF7F8
:103F30002FFD234664222321032001F0BBFA2146F2
:103F40006AA0FCF78DF966496348006802F0CCFA74
:103F5000814602F02DFA04B2002C0BDA61A04EF675
:103F60007D730022642100903220FCF711FD604235
:103F700004B208E05CA04EF67D730022642100903C
:103F80003220FCF705FD234664224B21032001F07B
:103F900091FA214659A0FCF763F951494D48006850
:103FA00002F0A2FA814602F003FA04B2002C0CDA05
:103FB0004CA04EF67D730022642100905A20FCF73D
:103FC000E7FC604204B209E01AE047A04EF67D73B8
:103FD0000022642100905A20FCF7DAFC2346642278
:103FE0007321032001F066FA214647A0FCF738F957
:103FF0003948006847490860384800684649086001
:10400000FEF750F94548007800F0800000B34348BF
:10401000007800F03F052D044148008805442846FB
:1040200002F01AFA83463F4902F05EFA81463E49A1
:1040300002F0C8F80746384602F0BAF981464B4606
:1040400023226421052001F035FA0020334908704D
:10405000FCF7C4FD8246504602F0AAF981464B4661
:104060004B226421052001F025FA3220FEF772FD73
:10407000FEF728F92D48007800F0800000B32B48A7
:10408000007800F03F063604294800880644304690
:1040900002F0E2F98346234902F026FA81462249DA
:1040A00002F090F88046404602F082F981464B4685
:1040B00037226421052001F0FDF900201B4908701A
:1040C00003E700006E6F6E650A0000005965730A11
:1040D0000000000008000020040000200000002074
:1040E000000020412D000000200000002D2D7069EF
:1040F0007463682025642D2D000000002D2D726F43
:104100006C6C2025642D2D002D2D79617720256480
:104110002D2D0A00100000200C0000204E00002071
:104120005000002000002A4300401C46520000209E
:10413000540000207047000070B50446002624F0AB
:104140000104184890F8240008B1002070BD1548FB
:10415000807A10B94FF0FF30F8E71248057C807A7A
:104160002040104908740846007CA04202D04FF05D
:10417000FF3600E0002614B90A48007D18B101207E
:1041800001F050F902E0002001F04CF93CB100F0E0
:10419000ABFC20B1034805744FF0FF30D6E7304642
:1041A000D4E70000580000202DE9F04F99B00446F4
:1041B0000D4616464FF07E574FF000084FF00009AD
:1041C0004FF0000A12A813A918AB0EAACDE90010EF
:1041D00014A916A8FEF78CFE18B1012019B0BDE88D
:1041E000F08FBDF84C0000F4807000287ED00E984F
:1041F00002F01AF983464FF09D4101F0E3FF0746B4
:104200000F9802F011F983464FF09D4101F0DAFF5B
:104210008046109802F008F983464FF09D4101F066
:10422000D1FF8146119802F0FFF883464FF09D417F
:1042300001F0C8FF824639464FF0804002F054F941
:104240004946059002F050F9414607904FF0404032
:1042500002F04AF95146059002F046F90690079996
:1042600001F042FF834601F013FFCDE90801FEF79C
:1042700015F94FF06632544BCDE90A0101F02EFCDE
:10428000CDE90C0101F0F0F9206049464FF0804083
:1042900002F02AF94946029002F026F941460490BC
:1042A0004FF0404002F020F94146029002F01CF924
:1042B0000390049902F016FA83464FF07E5101F004
:1042C00013FF059001F0E4FECDE9080139464FF0F7
:1042D000804002F009F94146039002F005F9494691
:1042E00004904FF0804002F0FFF800E068E0514693
:1042F000039002F0F9F88346049901F0F5FE059069
:1043000001F0C6FECDE90601DDE90823FEF70EFB4C
:104310004FF066322C4BCDE90A0101F0DFFBCDE90D
:104320000C0101F0A1F928605146504602F0DCF87A
:1043300049460490484602F0D7F84146039040466B
:1043400002F0D2F839460190384602F0CDF80090DC
:10435000019901F0C9FE0290039902F0C3F9834666
:10436000049902F0BFF9059001F092FECDE9080131
:104370005146384602F0B8F849460490404602F0EB
:10438000B3F80390049901F0AFFE4FF0804105901F
:1043900002F0AAF8834601F07BFECDE90601DDE9D3
:1043A0000823FEF7C3FA4FF06632074BCDE90A0146
:1043B00001F094FBCDE90C0101F056F9306001E009
:1043C00002200BE7002009E766A64C4070B50024E8
:1043D000FCF79CFE00F024F9002840D1782000F082
:1043E0002FFFC4B20CB1012070BD7820FFF7A4FEEE
:1043F000C4B20CB10220F7E7642000F0D3FEC4B2CF
:104400000CB10320F0E7FEF767FDC4B20CB1042045
:10441000EAE71548FFF7ECFC0546FEF7B7FFC4B224
:104420000CB10520E0E740F27310FEF7FDFBC4B2CB
:104430000CB10620D8E76420FEF7D8FEC4B20CB158
:104440000720D1E700F0A4FF04460CB10820CBE719
:10445000012000F0A3FDC4B21CB10920C4E70A206A
:10446000C2E70020C0E70000840000200146114898
:10447000407A30B1012807D0022808D003280CD197
:1044800008E0022008700BE00420087008E0082013
:10449000087005E01020087002E04FF0FF30704710
:1044A00000BF0448C07C18B108784006000E0870B0
:1044B0000020F4E75800002001461348407A30B14C
:1044C000012808D002280AD0032810D10BE04FF4AD
:1044D000804008800EE041F69C7008800AE04FF4AE
:1044E0008050088006E04FF40060088002E04FF042
:1044F000FF30704700BF0448C07C10B108884010EE
:1045000008800020F5E7000058000020014602481E
:10451000007C0870002070475800002001460F48BA
:10452000007A30B1012807D0022809D003280FD122
:104530000AE0FA2008800EE04FF4FA7008800AE0E2
:104540004FF47A70088006E04FF4FA60088002E0C9
:104550000020088000BF00BF0020704758000020E6
:1045600001460E48007A30B1012807D0022808D051
:1045700003280CD108E00A4808600BE009480860ED
:1045800008E00948086005E00848086002E04FF0CC
:10459000FF30704700BF0020FBE7000058000020FC
:1045A000000003430000834233330342333383412B
:1045B00001461248C07A082817D2DFE800F0170435
:1045C000070A0D101318BC20088013E06220088031
:1045D00010E02A2008800DE0142008800AE00A205C
:1045E000088007E00520088004E000BF00BF00202D
:1045F000088000BF00BF0020704700005800002066
:104600000146064890F8240010B14FF0FF30704783
:104610000248C08908800020F9E700005800002007
:104620001CB580208DF80000654A1268917C644AB0
:10463000526810786B460122FCF788FF10B14FF0EA
:10464000FF301CBD6420FEF785FA00208DF80000C5
:104650005B4A1268917C5A4A526810786B46012274
:10466000FCF774FF10B14FF0FF30EAE7544A1268CC
:10467000917D534A526810786B460622FCF7C0FEC3
:1046800010B14FF0FF30DCE79DF80500C007400F88
:104690009DF8031001F0010140EA41009DF801106E
:1046A00001F0010140EA010494B1012C03D1012180
:1046B0004348C17431E0022C03D100214048C17449
:1046C0002BE021463FA0FBF7CBFD4FF0FF30B8E7D2
:1046D0003B4A1268D1783A4A526810786B460122F8
:1046E000FCF78EFE10B14FF0FF30AAE79DF80000F6
:1046F00000F00F042CB93D48FBF7B2FD4FF0FF303E
:104700009FE7042C06D13AA0FBF7AAFD01212C4813
:10471000C17402E000212A48C174FF212848817237
:10472000FF2027490872FF2125484172C1724FF6C8
:10473000FF71C181FF21017481740121017380F82F
:104740002210002180F82310417501751630016098
:1047500041608160163880F8241080F82510C184EB
:104760004FF4FA6000F062FC10B14FF0FF3068E7E0
:10477000022000F02BFB10B14FF0FF3061E72A2040
:1047800000F0CEFC10B14FF0FF305AE7322000F0BD
:1047900009FD10B14FF0FF3053E70020FFF7CCFCCC
:1047A00010B14FF0FF304CE7002000F051FB10B18A
:1047B0004FF0FF3045E7002000F042FD002040E7C9
:1047C00058000020556E737570706F7274656420A8
:1047D000736F6674776172652070726F647563744D
:1047E000207265762025642E0A000000E08F000804
:1047F00048616C662073656E736974697669747953
:10480000207061727420666F756E642E0A0000005D
:104810002DE9F04385B005460E4690469946294855
:1048200090F8250020B14FF0FF3005B0BDE8F083CF
:1048300016B94FF0FF30F8E7002423E0281B1028BA
:1048400001DD102000E0281B87B2321939462046CE
:1048500000F05EFD10B14FF0FF30E6E701AA3946E7
:10486000204600F001F910B14FF0FF30DDE73019BC
:104870003A4601A9FBF7D8FD10B16FF00100D4E76B
:10488000E01984B2AC42D9DB4FEA28208DF8000051
:1048900008F0FF008DF801000A4A1268917E094A6B
:1048A000526810786B460222FCF750FE10B14FF0B0
:1048B000FF30BAE70121034880F82510A0F82690C0
:1048C0000020B2E75800002038B50446282C02DD4D
:1048D0004FF0FF3038BDDCB9002000F0EBFB0020CA
:1048E0008DF8000007208DF801002E4A1268917C97
:1048F0002C4A526810786B460222FCF727FE10B152
:104900004FF0FF30E6E70021264801750020E1E77F
:10491000012000F0CFFB20208DF80000012C06D1F3
:1049200000208DF80100052000F0FAFB17E0052CAF
:1049300006DC01208DF80100052000F0F1FB0EE0FF
:10494000142C06DC02208DF801000A2000F0E8FBA0
:1049500005E003208DF80100142000F0E1FB9DF834
:104960000100072101EB8010C0B28DF801000D4A53
:104970001268917C0B4A526810786B460222FCF751
:10498000E5FD10B14FF0FF30A4E708210548817222
:1049900000210173012101750020FFF7CDFB0020EC
:1049A00098E7000058000020F8B504460F46164668
:1049B0002C4890F8240010B94FF0FF30F8BD29487A
:1049C000807A10B94FF0FF30F8E7264A1268917AE2
:1049D000244A526810786B460222FCF711FD10B190
:1049E0004FF0FF30EAE79DF801009DF8001040EA23
:1049F0000125A54203DA00203070401EDEE7194889
:104A000040684088B5EB600F17DD164A1268517C8C
:104A1000144A526810786B460122FCF7F1FC10B181
:104A20004FF0FF30CAE79DF8000000F0100020B101
:104A300000F05AF86FF00100C0E7E2B2094B1B68C2
:104A4000D97A084B5B6818783B46FCF7D9FC10B163
:104A50004FF0FF30B2E795FBF4F0401E30700020BD
:104A6000ACE7000058000020F8B504460D46164695
:104A700016B94FF0FF30F8BD1A48807A10B94FF0E0
:104A8000FF30F8E720128DF80000E0B28DF8010049
:104A90009DF801002844134949684989884202DD8C
:104AA0004FF0FF30E7E70F4A1268117E0D4A526857
:104AB00010786B460222FCF749FD10B14FF0FF3031
:104AC000D9E7EAB2074B1B68597D064B5B6818783B
:104AD0003346FCF795FC10B14FF0FF30CBE70020D8
:104AE000C9E700005800002008B57048807A10B966
:104AF0004FF0FF3008BD002000906C4A1268D17B57
:104B00006A4A526810786B460122FCF71FFD10B10B
:104B10004FF0FF30EEE7654A12685179634A5268F8
:104B200010786B460122FCF711FD10B14FF0FF30F9
:104B3000E0E75E4A126811795C4A526810786B4669
:104B40000122FCF703FD10B14FF0FF30D2E75748C8
:104B500090F82400002853D00C200090534A12688B
:104B60001179524A526810786B460122FCF7EEFC2C
:104B700010B14FF0FF30BDE73220FDF7EBFFC02052
:104B800000904A48807A00F0010020B19DF80000B2
:104B900040F020000090454A12681179434A52685B
:104BA00010786B460122FCF7D1FC10B14FF0FF30BA
:104BB000A0E73E48407C10B10220009001E00020B8
:104BC00000903A4A1268D17B384A526810786B4696
:104BD0000122FCF7BBFC10B14FF0FF308AE7002048
:104BE0000090324A12685179304A526810786B4608
:104BF0000122FCF7ABFC002855D04FF0FF3079E7DD
:104C000004200090294A12681179284A52681078C5
:104C10006B460122FCF79AFC10B14FF0FF3069E7B8
:104C20002248807C20B92148807A00F0010010B928
:104C30004020009001E0602000901C4A1268117929
:104C40001A4A526810786B460122FCF77FFC10B1BB
:104C50004FF0FF304EE73220FDF77CFF1348407CD9
:104C600010B10120009001E0002000900F4A12686E
:104C7000D17B0E4A526810786B460122FCF766FC25
:104C800010B14FF0FF3035E7084A12685179074AF2
:104C900052681078054B10330122FCF757FC10B115
:104CA0004FF0FF3026E7002024E7000058000020E6
:104CB0002DE9F04F8DB083460F4602200C904248FC
:104CC00090F8240020B1002000F068F9012600E0EF
:104CD000002603A8FFF722FC05A8FFF7C7FB01A8E1
:104CE000FFF766FC02A8FFF78BFC374890F80AA094
:104CF00004A8FFF70BFC002407E0002239465846C1
:104D0000FEF7B6FD00B902E0641C022CF5DB00BF23
:104D1000022C01D1002528E0002407E0012206A989
:104D200009A8FEF7A5FD00B902E0641C022CF5DB22
:104D300000BF022C01D1002517E006A93846FDF777
:104D400059FB00F0FF0809A95846FEF7C9FF00F01B
:104D5000FF090025B9F1000F01D145F00105B8F1B7
:104D6000000F01D145F0020500BFFF20164908726F
:104D7000FF2115484172C1724FF6FF71C181FF21B9
:104D80008172017401210173BDF80C0000F04EF92D
:104D90009DF8140000F01AF8BDF8040000F0C0F906
:104DA000BDF8080000F0FEF9504600F049FA9DF801
:104DB0001000FFF7C1F916B1012000F0EFF8284606
:104DC0000DB0BDE8F08F00005800002038B5044653
:104DD0001E48807A10B94FF0FF3038BD022C06D043
:104DE000042C07D0082C08D0102C0CD108E000208F
:104DF00000900BE00820009008E01020009005E0F3
:104E00001820009002E04FF0FF30E6E700BF0F48A7
:104E1000407A9DF80010B0EBE10F01D10020DCE7F3
:104E20000A4A1268D179094A526810786B46012201
:104E3000FCF78CFB10B14FF0FF30CEE79DF800007F
:104E4000C110024841720020C7E70000580000204E
:104E500038B504465048807CA04201D1002038BDBE
:104E6000002C46D04C4A126811794B4A526810788F
:104E70006B460122FCF7C4FA10B14FF0FF30EEE7A9
:104E80009DF8000020F020000090434A126811793C
:104E9000414A526810786B460122FCF757FB10B16B
:104EA0004FF0FF30DBE70320FDF754FE02200090B7
:104EB000394890F8220020B19DF8000040F08000B1
:104EC0000090354890F8230020B19DF8000040F094
:104ED00030000090304A1268117D2F4A52681078D5
:104EE0006B460122FCF732FB002851D04FF0FF3017
:104EF000B5E7294A12681179274A526810786B463B
:104F00000122FCF77DFA10B14FF0FF30A7E72248ED
:104F1000807A00F0010028B19DF8000040F02000E8
:104F2000009004E09DF8000020F0200000901A4A54
:104F300012681179184A526810786B460122FCF702
:104F400005FB10B14FF0FF3089E70320FDF702FEAB
:104F5000114890F8220010B18020009001E000205C
:104F600000900D4890F8230020B19DF8000040F01B
:104F700030000090084A1268117D074A5268107884
:104F80006B460122FCF7E2FA10B14FF0FF3066E702
:104F900001488474002062E75800002038B50446B8
:104FA000214890F82400A04201D1002038BD24B34C
:104FB0001D4890F8250010B94FF0FF30F6E70020AB
:104FC00000F030FA0020FFF743FF1749C88C00F0CB
:104FD000E9F8002000901449496808786B460122DE
:104FE0002321FCF7B3FA01210F4880F82410012097
:104FF00000F018FAFFF778FD13E0002000F012FA35
:105000000948007C00900849496808786B460122ED
:105010002321FCF79BFA0021034880F82410FFF7B6
:1050200063FD0020C2E700005800002038B50446A8
:105030001F48807A10B94FF0FF3038BDFA2C09D0E4
:10504000B4F5FA7F09D0B4F57A7F09D0B4F5FA6FD8
:105050000CD108E0002000900BE00820009008E050
:105060001020009005E01820009002E04FF0FF3083
:10507000E3E700BF0E48007A9DF80010B0EBE10FA7
:1050800001D10020D9E70A4A12689179084A52688A
:1050900010786B460122FCF759FA10B14FF0FF303F
:1050A000CBE79DF80000C010014908720020C4E75A
:1050B0005800002038B50446184890F82300A04254
:1050C00001D1002038BD14B13020009001E0002053
:1050D00000901248807C20B19DF8000040F0020052
:1050E00000900E4890F8220020B19DF8000040F09A
:1050F00080000090094A1268117D084A52681078B1
:105100006B460122FCF722FA10B14FF0FF30D9E7CD
:10511000024880F823400020D4E700005800002017
:1051200038B504461E48807A10B94FF0FF3038BDBC
:10513000BC2C02DB0120009015E0622C02DB022077
:10514000009010E02A2C02DB032000900BE0142CCE
:1051500002DB0420009006E00A2C02DB0520009010
:1051600001E0062000900E48C07A9DF800108842A9
:1051700001D10020DBE70A4A12689178084A526898
:1051800010786B460122FCF7E1F910B14FF0FF30C7
:10519000CDE79DF800100248C1720020C7E700006B
:1051A0005800002038B504462448807A10B94FF0E2
:1051B000FF3038BD214890F8240010B14FF0FF3087
:1051C000F7E71E48007D50B134B1282C04DCE0B272
:1051D000FFF77AFB0020ECE70020FFF775FB042CBB
:1051E00001DA042404E0B4F57A7F01DD4FF47A7427
:1051F0004FF47A7090FBF4F0401EC0B200900F4A5A
:10520000126851780D4A526810786B460122FCF7FB
:105210009DF910B14FF0FF30CBE79DF80000401C26
:105220004FF47A7191FBF0F081B20448C1810146DC
:10523000C9894810FFF774FF0020BAE75800002022
:1052400038B5044604F0700010B10120009005E06C
:1052500014B10020009001E0402000902B4A126819
:10526000917C2A4A526810786B460122FCF76EF94D
:1052700020B1002125488172481E38BD9DF80000EC
:1052800020F04001214801730020009004F040000C
:1052900020B99DF8000040F00400009004F02000C8
:1052A00020B99DF8000040F00200009004F01000CA
:1052B00020B99DF8000040F00100009004F00800C3
:1052C00020B99DF8000040F0380000900F4A1268A5
:1052D000D17C0E4A526810786B460122FCF736F9F1
:1052E00020B1002109488172481EC6E724B1082C6C
:1052F00002D00020FFF7DEFE044884720021017511
:105300003220FDF727FC0020B7E7000058000020FE
:10531000F8B504460D46164616B94FF0FF30F8BDF5
:105320001A48807A10B94FF0FF30F8E720128DF854
:105330000000E0B28DF801009DF8010028441349F7
:1053400049684989884202DD4FF0FF30E7E70F4A9C
:105350001268117E0D4A526810786B460222FCF7E3
:10536000F5F810B14FF0FF30D9E7EAB2074B1B68F0
:10537000597D064B5B6818783346FCF7E7F810B1A7
:105380004FF0FF30CBE70020C9E7000058000020B5
:1053900070B588B002A905A8FFF78AFC0446032C63
:1053A0003ED101A8FFF7DCF8059801F03DF806466C
:1053B000019901F099F8054600F0FAFF059006986A
:1053C00001F032F80646019901F08EF8054600F02A
:1053D000EFFF0690079801F027F80646019901F0C3
:1053E00083F8054600F0E4FF079005A8FDF736FFB7
:1053F0006846FFF761F8BDF8001002984843029034
:10540000BDF80010039848430390BDF800100498BD
:105410004843049002A8FDF751FE002008B070BD7B
:105420000120FBE738B50446214890F82400C0B1BC
:1054300014B10220009001E0002000901C4A126884
:10544000D17B1B4A526810786B460122FCF77EF82C
:1054500010B14FF0FF3038BD9DF800101448417472
:1054600023E01348807A10B94FF0FF30F3E724B1FE
:105470000F48407C08B10020EDE714B101200090F6
:1054800001E0002000900A4A1268D17B084A526865
:1054900010786B460122FCF759F810B14FF0FF303D
:1054A000D9E79DF80010024841740020D3E70000BE
:1054B000580000202DE9F84F06460C4617461D46B9
:1054C0004FF00009C84641E00A2095FBF0F100FBCF
:1054D000115000F0FF090A2095FBF0F5A9F1010039
:1054E000092821D2DFE800F01D1A1714110E0B084D
:1054F00005000FF2600A1AE00FF25C0A17E00FF2E3
:105500005C0A14E00FF2580A11E00FF2580A0EE09C
:105510000FF2540A0BE00FF2540A08E00FF2500A9F
:1055200005E00FF2500A02E00FF24C0A00BF00BF84
:10553000B9B2A0B24EF67D730022CDF800A0FBF701
:1055400027FA083C08F1010000F0FF08B045BBDB7A
:10555000BDE8F88F39000000380000003700000077
:105560003600000035000000340000003300000069
:105570003200000031000000300000002DE9F04151
:1055800006460F4600F0B4FB041E0D4618BF01206E
:10559000284320F00040C0F17F6000F1E040C00FE0
:1055A0000ED0301C18BF0120384320F00040C0F15D
:1055B0007F6000F1E040C00F04BF0120FAF7E8FF70
:1055C00020462946BDE8F08110B586B00446012189
:1055D00044F20400FCF752F84FF40070ADF81400E8
:1055E00003208DF8160018208DF8170005A91C4817
:1055F000FBF726F94FF48060ADF8140004208DF815
:10560000170005A91648FBF71BF925208DF80000A7
:1056100003208DF801008DF8020001208DF80300B1
:105620006846FBF7C7FF01940020ADF80800ADF80D
:105630000A00ADF80C00ADF810000C20ADF80E001B
:1056400001A90848FCF792FD012240F225510548C6
:10565000FCF766FD01210348FCF72CFD06B010BDE8
:10566000000801400038014021F00042A2F16052E0
:10567000B2F5801F01F0004328BFD2F17F6C0BD937
:105680005FEA001C43EAC20242EB507018BF704749
:1056900028BF20F001007047B2F5801FBCBF18463C
:1056A00070474FEA410C1CF5001F02D2084600F07B
:1056B000E2BF70B500F0BCFA00000089FFF7F6BF4A
:1056C0004FF00040A0F580007047000010B591EA4F
:1056D000030F48BF83F0004300F1F883841A71EB95
:1056E000030C05D2121943EB0C03001B61EB0C01F8
:1056F000DFF824E14FEA1154A4EB135C1EEA430FD8
:1057000018BF9EEA445F73D023EA0E03DCF1200E3B
:1057100021EA045143F4801332D322FA0CFE10EB39
:105720000E0023FA0CFE41EB0E01CCF1200E03FA21
:105730000EFE10EB0E0051F10001B1F5801FCCF10F
:10574000200E32D201EB045112FA0EF2BDE81040E5
:1057500058BF7047401C38BF5FEA420218BF70470D
:10576000002814BF20F0010041F100014FEA41037D
:1057700013F5001F38BF7047A1F1C04100F0A6BA71
:10578000012A43EB0302ACF1200CDCF11F0E32BF07
:105790004FF0000E23FA0CF310EB030041EB045121
:1057A000B4EB115FD0D0A1EB045101F58011490891
:1057B0005FEA300001EB04510ED350F1000038BF16
:1057C00012FA0EFE08D1BDE81040C9E7401C38BFF0
:1057D0005FEA4202CAD1C3E7BDE810404FEA410385
:1057E00013F5001F38BF7047A1F1C04100F06EBA39
:1057F0009EEA445F08D011EA5E0FBDE8104004BF86
:1058000001F0004100207047BDE8104070B500F085
:105810000FFA00BF64FBBE3E0000E0FF02494FF0FC
:10582000000000F0D4BF00BF0000F87F2DE9C041A8
:1058300030B4DFF8A0C23CEA111418BF3CEA1314DC
:1058400000F0EC8081EA03051CEA111444EAD574E7
:1058500018BF1CEA131500F0C780A4EB05044FF035
:10586000004545EAC12145EAC32341EA505143EAD4
:10587000525304F17F74994204F500344FEAC0207A
:105880004FEAC22208BF904200F09C804FEA1365A5
:105890000FF24016765D4FEA134506FB05F7C7F198
:1058A000807706FB07F74FEAD737A7FB03687642F6
:1058B000C8F58038A7FB06CE38BFA8F1010807FB62
:1058C00008E64FF0000EA6FB028CE6FB03CEDCF1EF
:1058D000000CCEF1004E38BFAEF1010EA6FB0C5805
:1058E0004FF000074FF00005E6FB0E87A1FB08C64E
:1058F000A0FB07CE16EB0E0645F10005E1FB0765A0
:1059000015F1E04E7EBFA4F580345FEA46066D4196
:1059100016F1800745F100054FEA17274FEA0666A2
:1059200047EA0567A6F1DE46B6F1805F4FEA152526
:105930001FD9384624F0010C05EBC471BCF1FE6F91
:1059400001EB0C1102D8F0BCBDE8008124425CBF21
:1059500001F5801E9EEAC47F02D4F0BCBDE8008140
:10596000244238D4F0BCA1F1C041BDE8004100F0B0
:10597000ADB94FEAD22242EA43524FEAD323A7FB02
:1059800002864FEAD02040EA415007FB03661EEA38
:105990000E0F4FEAD12105FB026658BFA6EB005659
:1059A000B6EB00564FEA520E4EEAC37E18EB0E0ECF
:1059B00056EB530EBDD518EB02085E417F1C55F126
:1059C0000005B6E74FF480154FF000074FF00006D2
:1059D0004FF00008ADE7F0BC4FF0000001F1C0410E
:1059E00001F00041BDE8008111EA0C1F0CEA13151B
:1059F00000D00CE013EA0C1F00F025804FF00000EF
:105A0000F0BC81EA030101F00041BDE80081F0BC77
:105A1000BDE8004181EA030100F058B9F0BCBDE8DF
:105A2000004170B500F004F9097EFC3E00F007B8B3
:105A300081EA03014FF0000001F00041704781EA64
:105A4000030100F043B9F0BCBDE800414FF0000095
:105A500021497047FFFDFBF9F7F5F4F2F0EEEDEBAD
:105A6000E9E8E6E4E3E1E0DEDDDBDAD8D7D5D4D35C
:105A7000D1D0CFCDCCCBCAC8C7C6C5C4C2C1C0BFA8
:105A8000BEBDBCBBBAB9B8B7B6B5B4B3B2B1B0AFAE
:105A9000AEADACABAAA9A8A8A7A6A5A4A3A3A2A192
:105AA000A09F9F9E9D9C9C9B9A999998979796954D
:105AB00095949393929191908F8F8E8E8D8C8C8BE9
:105AC0008B8A898988888787868585848483838271
:105AD000828181800000FF070000F87FDFF848C165
